{
	"custom_token/ERC20.sol": {
		"ERC20Basic": {
			"abi": [
				{
					"inputs": [
						{
							"internalType": "address",
							"name": "acccount",
							"type": "address"
						}
					],
					"name": "balanceOf",
					"outputs": [
						{
							"internalType": "uint256",
							"name": "",
							"type": "uint256"
						}
					],
					"stateMutability": "view",
					"type": "function"
				},
				{
					"inputs": [],
					"name": "totalSupply",
					"outputs": [
						{
							"internalType": "uint256",
							"name": "",
							"type": "uint256"
						}
					],
					"stateMutability": "view",
					"type": "function"
				}
			],
			"devdoc": {
				"kind": "dev",
				"methods": {},
				"version": 1
			},
			"evm": {
				"assembly": "    /* \"custom_token/ERC20.sol\":517:734  contract ERC20Basic is ERC20{... */\n  mstore(0x40, 0x80)\n  callvalue\n  dup1\n  iszero\n  tag_1\n  jumpi\n  0x00\n  dup1\n  revert\ntag_1:\n  pop\n  dataSize(sub_0)\n  dup1\n  dataOffset(sub_0)\n  0x00\n  codecopy\n  0x00\n  return\nstop\n\nsub_0: assembly {\n        /* \"custom_token/ERC20.sol\":517:734  contract ERC20Basic is ERC20{... */\n      mstore(0x40, 0x80)\n      callvalue\n      dup1\n      iszero\n      tag_1\n      jumpi\n      0x00\n      dup1\n      revert\n    tag_1:\n      pop\n      jumpi(tag_2, lt(calldatasize, 0x04))\n      shr(0xe0, calldataload(0x00))\n      dup1\n      0x18160ddd\n      eq\n      tag_3\n      jumpi\n      dup1\n      0x70a08231\n      eq\n      tag_4\n      jumpi\n    tag_2:\n      0x00\n      dup1\n      revert\n        /* \"custom_token/ERC20.sol\":553:640  function totalSupply() public override view returns(uint256){... */\n    tag_3:\n      tag_5\n      tag_6\n      jump\t// in\n    tag_5:\n      mload(0x40)\n      tag_7\n      swap2\n      swap1\n      tag_8\n      jump\t// in\n    tag_7:\n      mload(0x40)\n      dup1\n      swap2\n      sub\n      swap1\n      return\n        /* \"custom_token/ERC20.sol\":646:730  function balanceOf(address acccount) public override view returns (uint256){... */\n    tag_4:\n      tag_9\n      0x04\n      dup1\n      calldatasize\n      sub\n      dup2\n      add\n      swap1\n      tag_10\n      swap2\n      swap1\n      tag_11\n      jump\t// in\n    tag_10:\n      tag_12\n      jump\t// in\n    tag_9:\n      mload(0x40)\n      tag_13\n      swap2\n      swap1\n      tag_8\n      jump\t// in\n    tag_13:\n      mload(0x40)\n      dup1\n      swap2\n      sub\n      swap1\n      return\n        /* \"custom_token/ERC20.sol\":553:640  function totalSupply() public override view returns(uint256){... */\n    tag_6:\n        /* \"custom_token/ERC20.sol\":605:612  uint256 */\n      0x00\n        /* \"custom_token/ERC20.sol\":553:640  function totalSupply() public override view returns(uint256){... */\n      swap1\n      jump\t// out\n        /* \"custom_token/ERC20.sol\":646:730  function balanceOf(address acccount) public override view returns (uint256){... */\n    tag_12:\n        /* \"custom_token/ERC20.sol\":713:720  uint256 */\n      0x00\n        /* \"custom_token/ERC20.sol\":646:730  function balanceOf(address acccount) public override view returns (uint256){... */\n      swap2\n      swap1\n      pop\n      jump\t// out\n        /* \"--CODEGEN--\":5:135   */\n    tag_17:\n      0x00\n        /* \"--CODEGEN--\":85:91   */\n      dup2\n        /* \"--CODEGEN--\":72:92   */\n      calldataload\n        /* \"--CODEGEN--\":63:92   */\n      swap1\n      pop\n        /* \"--CODEGEN--\":97:130   */\n      tag_19\n        /* \"--CODEGEN--\":124:129   */\n      dup2\n        /* \"--CODEGEN--\":97:130   */\n      tag_20\n      jump\t// in\n    tag_19:\n        /* \"--CODEGEN--\":57:135   */\n      swap3\n      swap2\n      pop\n      pop\n      jump\t// out\n        /* \"--CODEGEN--\":142:383   */\n    tag_11:\n      0x00\n        /* \"--CODEGEN--\":246:248   */\n      0x20\n        /* \"--CODEGEN--\":234:243   */\n      dup3\n        /* \"--CODEGEN--\":225:232   */\n      dup5\n        /* \"--CODEGEN--\":221:244   */\n      sub\n        /* \"--CODEGEN--\":217:249   */\n      slt\n        /* \"--CODEGEN--\":214:216   */\n      iszero\n      tag_22\n      jumpi\n        /* \"--CODEGEN--\":262:263   */\n      0x00\n        /* \"--CODEGEN--\":259:260   */\n      dup1\n        /* \"--CODEGEN--\":252:264   */\n      revert\n        /* \"--CODEGEN--\":214:216   */\n    tag_22:\n        /* \"--CODEGEN--\":297:298   */\n      0x00\n        /* \"--CODEGEN--\":314:367   */\n      tag_23\n        /* \"--CODEGEN--\":359:366   */\n      dup5\n        /* \"--CODEGEN--\":350:356   */\n      dup3\n        /* \"--CODEGEN--\":339:348   */\n      dup6\n        /* \"--CODEGEN--\":335:357   */\n      add\n        /* \"--CODEGEN--\":314:367   */\n      tag_17\n      jump\t// in\n    tag_23:\n        /* \"--CODEGEN--\":304:367   */\n      swap2\n      pop\n        /* \"--CODEGEN--\":276:373   */\n      pop\n        /* \"--CODEGEN--\":208:383   */\n      swap3\n      swap2\n      pop\n      pop\n      jump\t// out\n        /* \"--CODEGEN--\":390:503   */\n    tag_24:\n        /* \"--CODEGEN--\":473:497   */\n      tag_26\n        /* \"--CODEGEN--\":491:496   */\n      dup2\n        /* \"--CODEGEN--\":473:497   */\n      tag_27\n      jump\t// in\n    tag_26:\n        /* \"--CODEGEN--\":468:471   */\n      dup3\n        /* \"--CODEGEN--\":461:498   */\n      mstore\n        /* \"--CODEGEN--\":455:503   */\n      pop\n      pop\n      jump\t// out\n        /* \"--CODEGEN--\":510:732   */\n    tag_8:\n      0x00\n        /* \"--CODEGEN--\":637:639   */\n      0x20\n        /* \"--CODEGEN--\":626:635   */\n      dup3\n        /* \"--CODEGEN--\":622:640   */\n      add\n        /* \"--CODEGEN--\":614:640   */\n      swap1\n      pop\n        /* \"--CODEGEN--\":651:722   */\n      tag_29\n        /* \"--CODEGEN--\":719:720   */\n      0x00\n        /* \"--CODEGEN--\":708:717   */\n      dup4\n        /* \"--CODEGEN--\":704:721   */\n      add\n        /* \"--CODEGEN--\":695:701   */\n      dup5\n        /* \"--CODEGEN--\":651:722   */\n      tag_24\n      jump\t// in\n    tag_29:\n        /* \"--CODEGEN--\":608:732   */\n      swap3\n      swap2\n      pop\n      pop\n      jump\t// out\n        /* \"--CODEGEN--\":739:830   */\n    tag_30:\n      0x00\n        /* \"--CODEGEN--\":801:825   */\n      tag_32\n        /* \"--CODEGEN--\":819:824   */\n      dup3\n        /* \"--CODEGEN--\":801:825   */\n      tag_33\n      jump\t// in\n    tag_32:\n        /* \"--CODEGEN--\":790:825   */\n      swap1\n      pop\n        /* \"--CODEGEN--\":784:830   */\n      swap2\n      swap1\n      pop\n      jump\t// out\n        /* \"--CODEGEN--\":837:958   */\n    tag_33:\n      0x00\n        /* \"--CODEGEN--\":910:952   */\n      0xffffffffffffffffffffffffffffffffffffffff\n        /* \"--CODEGEN--\":903:908   */\n      dup3\n        /* \"--CODEGEN--\":899:953   */\n      and\n        /* \"--CODEGEN--\":888:953   */\n      swap1\n      pop\n        /* \"--CODEGEN--\":882:958   */\n      swap2\n      swap1\n      pop\n      jump\t// out\n        /* \"--CODEGEN--\":965:1037   */\n    tag_27:\n      0x00\n        /* \"--CODEGEN--\":1027:1032   */\n      dup2\n        /* \"--CODEGEN--\":1016:1032   */\n      swap1\n      pop\n        /* \"--CODEGEN--\":1010:1037   */\n      swap2\n      swap1\n      pop\n      jump\t// out\n        /* \"--CODEGEN--\":1044:1161   */\n    tag_20:\n        /* \"--CODEGEN--\":1113:1137   */\n      tag_37\n        /* \"--CODEGEN--\":1131:1136   */\n      dup2\n        /* \"--CODEGEN--\":1113:1137   */\n      tag_30\n      jump\t// in\n    tag_37:\n        /* \"--CODEGEN--\":1106:1111   */\n      dup2\n        /* \"--CODEGEN--\":1103:1138   */\n      eq\n        /* \"--CODEGEN--\":1093:1095   */\n      tag_38\n      jumpi\n        /* \"--CODEGEN--\":1152:1153   */\n      0x00\n        /* \"--CODEGEN--\":1149:1150   */\n      dup1\n        /* \"--CODEGEN--\":1142:1154   */\n      revert\n        /* \"--CODEGEN--\":1093:1095   */\n    tag_38:\n        /* \"--CODEGEN--\":1087:1161   */\n      pop\n      jump\t// out\n\n    auxdata: 0xa2646970667358221220c8ac458fba1738caf35f6953322d7be9c5629aa5f252f0892424f058258756ff64736f6c634300060c0033\n}\n",
				"bytecode": {
					"linkReferences": {},
					"object": "608060405234801561001057600080fd5b50610186806100206000396000f3fe608060405234801561001057600080fd5b50600436106100365760003560e01c806318160ddd1461003b57806370a0823114610059575b600080fd5b610043610089565b60405161005091906100e2565b60405180910390f35b610073600480360381019061006e91906100aa565b61008e565b60405161008091906100e2565b60405180910390f35b600090565b6000919050565b6000813590506100a481610139565b92915050565b6000602082840312156100bc57600080fd5b60006100ca84828501610095565b91505092915050565b6100dc8161012f565b82525050565b60006020820190506100f760008301846100d3565b92915050565b60006101088261010f565b9050919050565b600073ffffffffffffffffffffffffffffffffffffffff82169050919050565b6000819050919050565b610142816100fd565b811461014d57600080fd5b5056fea2646970667358221220c8ac458fba1738caf35f6953322d7be9c5629aa5f252f0892424f058258756ff64736f6c634300060c0033",
					"opcodes": "PUSH1 0x80 PUSH1 0x40 MSTORE CALLVALUE DUP1 ISZERO PUSH2 0x10 JUMPI PUSH1 0x0 DUP1 REVERT JUMPDEST POP PUSH2 0x186 DUP1 PUSH2 0x20 PUSH1 0x0 CODECOPY PUSH1 0x0 RETURN INVALID PUSH1 0x80 PUSH1 0x40 MSTORE CALLVALUE DUP1 ISZERO PUSH2 0x10 JUMPI PUSH1 0x0 DUP1 REVERT JUMPDEST POP PUSH1 0x4 CALLDATASIZE LT PUSH2 0x36 JUMPI PUSH1 0x0 CALLDATALOAD PUSH1 0xE0 SHR DUP1 PUSH4 0x18160DDD EQ PUSH2 0x3B JUMPI DUP1 PUSH4 0x70A08231 EQ PUSH2 0x59 JUMPI JUMPDEST PUSH1 0x0 DUP1 REVERT JUMPDEST PUSH2 0x43 PUSH2 0x89 JUMP JUMPDEST PUSH1 0x40 MLOAD PUSH2 0x50 SWAP2 SWAP1 PUSH2 0xE2 JUMP JUMPDEST PUSH1 0x40 MLOAD DUP1 SWAP2 SUB SWAP1 RETURN JUMPDEST PUSH2 0x73 PUSH1 0x4 DUP1 CALLDATASIZE SUB DUP2 ADD SWAP1 PUSH2 0x6E SWAP2 SWAP1 PUSH2 0xAA JUMP JUMPDEST PUSH2 0x8E JUMP JUMPDEST PUSH1 0x40 MLOAD PUSH2 0x80 SWAP2 SWAP1 PUSH2 0xE2 JUMP JUMPDEST PUSH1 0x40 MLOAD DUP1 SWAP2 SUB SWAP1 RETURN JUMPDEST PUSH1 0x0 SWAP1 JUMP JUMPDEST PUSH1 0x0 SWAP2 SWAP1 POP JUMP JUMPDEST PUSH1 0x0 DUP2 CALLDATALOAD SWAP1 POP PUSH2 0xA4 DUP2 PUSH2 0x139 JUMP JUMPDEST SWAP3 SWAP2 POP POP JUMP JUMPDEST PUSH1 0x0 PUSH1 0x20 DUP3 DUP5 SUB SLT ISZERO PUSH2 0xBC JUMPI PUSH1 0x0 DUP1 REVERT JUMPDEST PUSH1 0x0 PUSH2 0xCA DUP5 DUP3 DUP6 ADD PUSH2 0x95 JUMP JUMPDEST SWAP2 POP POP SWAP3 SWAP2 POP POP JUMP JUMPDEST PUSH2 0xDC DUP2 PUSH2 0x12F JUMP JUMPDEST DUP3 MSTORE POP POP JUMP JUMPDEST PUSH1 0x0 PUSH1 0x20 DUP3 ADD SWAP1 POP PUSH2 0xF7 PUSH1 0x0 DUP4 ADD DUP5 PUSH2 0xD3 JUMP JUMPDEST SWAP3 SWAP2 POP POP JUMP JUMPDEST PUSH1 0x0 PUSH2 0x108 DUP3 PUSH2 0x10F JUMP JUMPDEST SWAP1 POP SWAP2 SWAP1 POP JUMP JUMPDEST PUSH1 0x0 PUSH20 0xFFFFFFFFFFFFFFFFFFFFFFFFFFFFFFFFFFFFFFFF DUP3 AND SWAP1 POP SWAP2 SWAP1 POP JUMP JUMPDEST PUSH1 0x0 DUP2 SWAP1 POP SWAP2 SWAP1 POP JUMP JUMPDEST PUSH2 0x142 DUP2 PUSH2 0xFD JUMP JUMPDEST DUP2 EQ PUSH2 0x14D JUMPI PUSH1 0x0 DUP1 REVERT JUMPDEST POP JUMP INVALID LOG2 PUSH5 0x6970667358 0x22 SLT KECCAK256 0xC8 0xAC GASLIMIT DUP16 0xBA OR CODESIZE 0xCA RETURN 0x5F PUSH10 0x53322D7BE9C5629AA5F2 MSTORE CREATE DUP10 0x24 0x24 CREATE PC 0x25 DUP8 JUMP SELFDESTRUCT PUSH5 0x736F6C6343 STOP MOD 0xC STOP CALLER "
				},
				"gasEstimates": {
					"creation": {
						"codeDepositCost": "78000",
						"executionCost": "129",
						"totalCost": "78129"
					},
					"external": {
						"balanceOf(address)": "643",
						"totalSupply()": "307"
					}
				},
				"methodIdentifiers": {
					"balanceOf(address)": "70a08231",
					"totalSupply()": "18160ddd"
				}
			},
			"storageLayout": {
				"storage": [],
				"types": null
			},
			"userdoc": {
				"kind": "user",
				"methods": {},
				"version": 1
			}
		}
	}
}